S00E00005761737058542E73726563CF
S11300000C9434000C946C000C9451000C9451002A
S11300100C9451000C9451000C9451000C94510018
S11300200C9451000C9451000C9451000C94510008
S11300300C9451000C9451000C9451000C945100F8
S11300400C9451000C9451000C9451000C945100E8
S11300500C9451000C9451000C9451000C945100D8
S11300600C9451000C94510011241FBECFEFD8E022
S1130070DEBFCDBF11E0A0E0B1E0E2E8F1E102C0F3
S113008005900D92AA30B107D9F725E0AAE0B1E0B6
S113009001C01D92AB34B207E1F70E940D030C942A
S11300A0BF080C940000A82FB92F80E090E041E035
S11300B050EA609530E009C02D9182279795879585
S11300C010F084279527305EC8F36F5FA8F3089576
S11300D0EADF8D939D930895CF93CFB7CF93DF93AA
S11300E0C3954A9BE9F74A9B0BC04A9B09C04A9BAC
S11300F007C04A9B05C04A9B03C04A9B01C08EC0EF
S11301006F93C0912E05DD27CB5CDA4F2F9365E505
S11301104A9B03C02F916F91E6CF0F931F934F9388
S113012020E040E15F9309B10C7002FB27F93F9393
S113013050E03BE039C01C7040642F77012F5350CE
S11301401EC0406819B11C702F7753501FC0406403
S113015009B12F770C70D1F15350000023C04062D5
S113016019B12F771C7091F15350000025C00C7009
S11301701027515012F45D5F0000115027952C3F59
S113018019B1C8F61C700127015027952C3FC8F6F9
S11301904227499309B10C7010274F7311502795CA
S11301A02C3FA8F64695469519B11C7079F00127A5
S11301B0015027952C3F98F66B5A60F3315009B1E2
S11301C0B0F600C011E01CBB00271CC03B503195A9
S11301D0C31BD04011E01CBB0881033C21F10B344C
S11301E011F120912C051981110F1213EDCF4A81C1
S11301F0441F093669F10D3211F0013E29F74F70A1
S113020009F0042F009333053F915F914F911F91A3
S11302100F912F916F91CCB3C0FD62CFDF91CF913D
S1130220CFBFCF91189520913305222369F3109104
S11302303105112391F5343092F130933105209337
S11302402D0510912E053BE0311B30932E0527C060
S11302500091310501300CF50AE54F7049F43091F5
S1130260000134FD1DC000930001C5E1D5E01CC0B0
S11302703091200534FD14C000932005C1E2D5E07F
S113028013C0052710E000C000000BB91AC00527F1
S113029010E0221F1DC010E021C04AE502C032ED6B
S11302A0432FC4E1D0E032E01AB11C605A9A0BB17A
S11302B01AB95CE020E865E320FF05270BB9279510
S11302C017951C3FF0F66695B8F7B1F720FF0527A0
S11302D00BB9279517951C3FD0F62795179517FF4F
S11302E0052700001C3F0BB9B0F629913A9519F780
S11302F0037F10913205110FC651D0400BB911F094
S113030010932C0511E01CBB04601AB1137F402F1D
S1130310437F54E05A95F1F70BB91AB94BB974CF2E
S1130320E9EBF0E080818C7F80838DE08093B800DE
S1130330089580930A01ECEBF0E08081846A808365
S113034080818823ECF78091B900887F883021F080
S1130350803111F08EEF08958FEF0895880F9091FA
S11303600A01892B8093BB00ECEBF0E080818F7D48
S1130370808380818068808380818823ECF78091EA
S11303800A01811107C08091B900887F883159F032
S11303908EEF0895813049F48091B900887F8034CC
S11303A031F08EEF08958FEF089580E008958FEF78
S11303B008958093BB00ECEBF0E08081806880833B
S11303C080818823ECF78091B900887F883211F00E
S11303D08EEF08958FEF0895ECEBF0E08081806953
S11303E08083808184FFFDCF0895CF93DF93D62F40
S11303F0C42FA0E0B0E0880F991FAA1FBB1F880F6D
S1130400991FAA1FBB1F9C01AD01220F331F441F5C
S1130410551F220F331F441F551F60E07BE187EBFC
S113042090E00E949D08215031093093C50020932B
S1130430C400E2ECF0E08081806280838081866089
S11304408083DD2329F0E1ECF0E08081806180830A
S1130450CC2329F0E1ECF0E0808188608083DF9197
S1130460CF9108958091C000881F8827881F089520
S1130470E0ECF0E080818823ECF78091C6000895D9
S1130480219A229A239A789441E061E080E895E2E7
S11304900E94F50102C00E9438020E9432028111BA
S11304A0FACF0FE011E0CBE0D1E00E9432028823C2
S11304B0E1F30E943802F82E0E943802E82E0E94CE
S11304C03802982E0E943802882E0E943802D82EB4
S11304D00E943802C82E0E943802B82E0E943802A8
S11304E0A82EF8018081F8120AC08181E81207C0A1
S11304F08281981204C08381881609F43FC0299828
S11305002A982B98F801F082E182928283820E94D9
S1130510ED05F801408150E020E030E06FE370E049
S113052080E090E00E940F03F801808190E0228136
S11305300F2EFFE3EF2EF12CF02DA701421B5109E2
S11305409A014181BC01640F711DAB0160E070E050
S11305500E940F03F8012081818190E0820F911D98
S11305602381AC01420F511D2281B701621B710925
S11305702FE330E00E940F030E9464068881D812A2
S113058009C08981C81206C08A81B81203C08B8150
S1130590A816F1F129982A982B9AD882C982BA828E
S11305A0AB820E94ED05488150E020E030E06FE32B
S11305B070E080E090E00E940F03888190E02A813F
S11305C00F2EFFE3EF2EF12CF02DA701421B510952
S11305D09A014981BC01640F711DAB0160E070E0B8
S11305E00E940F032881898190E0820F911D2B8145
S11305F0AC01420F511D2A81B701621B71092FE31F
S113060030E00E940F030E94640602C00E94380278
S11306100E9432028111FACF48CF0E9440022F92E9
S11306203F924F925F926F927F928F929F92AF927E
S1130630BF92CF92DF92EF92FF920F931F93CF93CB
S1130640DF93CDB7DEB72C970FB6F894DEBF0FBE9D
S1130650CDBF7C018B016A01190188E0E1E0F1E082
S1130660DE01119601900D928A95E1F7CA018E1967
S11306709F09BC0122F466277727681B790B2B019D
S1130680C101801B910BBC0122F466277727681BEC
S1130690790B3B014616570609F08AC0021513056B
S11306A02CF0CE14DF040CF044C0EDC1CE14DF04F2
S11306B00CF4E9C1C80111230CF4079695958795AC
S11306C095958795959587959C013695322F222788
S11306D0379527952B5E3E4F2E0D3F1DD801A770F1
S11306E0B078BB2324F41197A86FBF6F119641E033
S11306F050E04C0F5D1FA40FB51FFC01F695FE2FB3
S1130700EE27F795E795EB5EFE4FEE0DFF1D9C91EE
S11307108081892BF9018083FFEFEF1AFF0A0F5FB5
S11307201F4FCE14DF040CF4AEC12016310614F6AC
S1130730AAC1C80111230CF4079695958795959540
S11307408795959587959C013695322F2227379565
S113075027952B5E3E4F2E0D3F1DD801A770B07814
S1130760BB2324F41197A86FBF6F119641E050E0AA
S11307704C0F5D1FA40FB51FFC01F695FE2FEE274D
S1130780F795E795EB5EFE4FEE0DFF1D9C91808182
S1130790892BF9018083FFEFEF1AFF0A0150110939
S11307A0CE14DF040CF46FC10215130514F66BC1EB
S11307B0641575050CF0BBC0B801012E000C880B44
S11307C0990B0E9411084B015C01B301770C880B53
S11307D0990B0E94110869877A878B879C87B201DD
S11307E0550C880B990B0E9411089B01AC0169857B
S11307F07A858B859C850E9467072B013C01021535
S113080013052CF0CE14DF040CF04BC03CC1CE1405
S1130810DF040CF438C1C80111230CF40796959534
S1130820879595958795959587959C013695322F53
S11308302227379527952B5E3E4F2E0D3F1D0770BF
S11308401078112334F401501109086F1F6F0F5FE2
S11308501F4FA1E0B0E0AC0FBD1FA00FB11FFC0102
S1130860F695FE2FEE27F795E795EB5EFE4FEE0D1E
S1130870FF1D9C918081892BF9018083FFEFEF1A82
S1130880FF0AA3019201C501B4010E94FB064B01BA
S11308905C010E94D9078B01CE14DF040CF0BBCF9E
S11308A0F2C0C80111230CF4079695958795959588
S11308B08795959587959C013695322F22273795F4
S11308C027952B5E3E4F2E0D3F1D07701078112388
S11308D034F401501109086F1F6F0F5F1F4FA1E01F
S11308E0B0E0AC0FBD1FA00FB11FFC01F695FE2FA9
S11308F0EE27F795E795EB5EFE4FEE0DFF1D9C91FD
S11309008081892BF9018083FFEFEF1AFF0AA3018D
S11309109201C501B4010E94FA064B015C010E94D8
S1130920D9078B01CE14DF040CF0BBCFACC0B701E8
S11309300F2C000C880B990B0E9411084B015C01D1
S1130940B201550C880B990B0E94110869877A87AC
S11309508B879C87B301770C880B990B0E94110835
S11309609B01AC0169857A858B859C850E9467070C
S11309702B013C01021513050CF043C0C8011123DF
S11309800CF40796959587959595879595958795F4
S1130990DC01B695BA2FAA27B795A795AB5EBE4FD3
S11309A0AE0DBF1DF801E770F078FF2324F43197F2
S11309B0E86FFF6F319621E030E02C0F3D1FE20F0E
S11309C0F31F9695982F8827979587958B5E9E4F52
S11309D0E80EF91E9081F7018081892B8C930F5FBB
S11309E01F4FA3019201C501B4010E94FB064B01F4
S11309F05C010E94D9077B01201631060CF0BECFA2
S1130A0042C0C80111230CF40796959587959595D6
S1130A10879595958795DC01B695BA2FAA27B79542
S1130A20A795AB5EBE4FAE0DBF1DF801E770F07821
S1130A30FF2324F43197E86FFF6F319621E030E013
S1130A402C0F3D1FE20FF31F9695982F882797953B
S1130A5087958B5E9E4FE80EF91E9081F701808189
S1130A60892B8C9301501109A3019201C501B40192
S1130A700E94FB064B015C010E94D9077B01021511
S1130A8013050CF0BECF2C960FB6F894DEBF0FBE44
S1130A90CDBFDF91CF911F910F91FF90EF90DF9029
S1130AA0CF90BF90AF909F908F907F906F905F900A
S1130AB04F903F902F900895CF93C82F80E00E94CD
S1130AC099018C2F0E94AE01CF910895CF93C82F26
S1130AD08CE30E945C0580E00E94D9018C2F0E9467
S1130AE0D9010E94EC01CF910895CF92DF92EF9249
S1130AF0FF920F931F93CF93DF9381E20E946605C9
S1130B0080E00E9466058FE70E94660582E20E94EB
S1130B10660580E00E94660587E00E9466058CE316
S1130B200E945C0580E40E94D901C0E0D4E080E02A
S1130B300E94D9012197D9F781E20E94660580E0DD
S1130B400E9466058FE70E94660582E20E946605A0
S1130B5080E00E94660587E00E9466058CE30E949F
S1130B605C0580E40E94D9010F2EF5E1EF2EF1E03F
S1130B70FF2EF02D05E911E065E172E045E952E050
S1130B8025E133E0C5E9D3E0A5E1B4E00F2EF5E9B2
S1130B90CF2EF4E0DF2EF02D80E0F70111927F01DB
S1130BA0F80111928F01FB011192BF01FA01119218
S1130BB0AF01F90111929F0119921D92F601119250
S1130BC06F018F5F803849F7DF91CF911F910F91AB
S1130BD0FF90EF90DF90CF9008950E9490018EEAED
S1130BE00E94660585ED0E94660580E80E94660500
S1130BF088EA0E9466058FE30E94660583ED0E94E1
S1130C00660580E00E94660580E40E9466058DE822
S1130C100E94660584E10E94660580E20E946605E2
S1130C2080E00E94660581EA0E94660588EC0E94C5
S1130C3066058AED0E94660582E10E94660581E8E8
S1130C400E9466058FEC0E94660589ED0E94660588
S1130C5081EF0E9466058BED0E94660580E40E9488
S1130C60660584EA0E94660586EA0E9466058FEAA4
S1130C700E9466050E9475050895CF93DF9389301D
S1130C8000F56623F4F0D62FC82F809313016093E8
S1130C90140181E20E9466058D2F0E9466058FE78C
S1130CA00E94660582E20E9466058C2F0E946605FA
S1130CB087E00E9466058CE30E945C0580E40E9444
S1130CC0D901DF91CF9108953F924F925F926F9235
S1130CD07F928F929F92AF92BF92CF92DF92EF92C8
S1130CE0FF920F931F93CF93DF930F2EF5E1AF2E57
S1130CF0F1E0BF2EF02D0F2EF5E9CF2EF1E0DF2E1F
S1130D00F02D0F2EF5E1EF2EF2E0FF2EF02D05E988
S1130D1012E0C5E1D3E00F2EF5E98F2EF3E09F2E0C
S1130D20F02D0F2EF5E16F2EF4E07F2EF02D0F2E17
S1130D30F5E94F2EF4E05F2EF02D312C632D80E089
S1130D400E943D06F50181915F010E94D901632D46
S1130D5081E00E943D06F60181916F010E94D90154
S1130D60632D82E00E943D06F70181917F010E947C
S1130D70D901632D83E00E943D06F80181918F0122
S1130D800E94D901632D84E00E943D0689910E944E
S1130D90D901632D85E00E943D06F40181914F0144
S1130DA00E94D901632D86E00E943D06F3018191E2
S1130DB03F010E94D901632D87E00E943D06F201A4
S1130DC081912F010E94D9013394F0E83F12B6CFEC
S1130DD0DF91CF911F910F91FF90EF90DF90CF9013
S1130DE0BF90AF909F908F907F906F905F904F9047
S1130DF03F9008955058BB27AA270E9412070C94CD
S1130E0063080E94550838F00E945C0820F039F409
S1130E109F3F19F426F40C9452080EF4E095E7FB76
S1130E200C944C08E92F0E94740858F3BA1762070F
S1130E3073078407950720F079F4A6F50C949608B7
S1130E400EF4E0950B2EBA2FA02D0B01B9019001E1
S1130E500C01CA01A0011124FF27591B99F0593F25
S1130E6050F4503E68F11A16F040A22F232F342F6D
S1130E704427585FF3CF469537952795A795F040BB
S1130E805395C9F77EF41F16BA0B620B730B840BD0
S1130E90BAF09150A1F0FF0FBB1F661F771F881F88
S1130EA0C2F70EC0BA0F621F731F841F48F48795E0
S1130EB077956795B795F7959E3F08F0B0CF9395D2
S1130EC0880F08F09927EE0F9795879508950E944B
S1130ED07B070C9463080E945C0858F00E94550834
S1130EE040F029F45F3F29F00C944C0851110C9404
S1130EF097080C9452080E94740868F39923B1F37C
S1130F00552391F3951B550BBB27AA27621773072B
S1130F10840738F09F5F5F4F220F331F441FAA1FBF
S1130F20A9F335D00E2E3AF0E0E832D0915050407B
S1130F30E695001CCAF72BD0FE2F29D0660F771F29
S1130F40881FBB1F261737074807AB07B0E809F00F
S1130F50BB0B802DBF01FF2793585F4F3AF09E3F94
S1130F60510578F00C944C080C9497085F3FE4F317
S1130F70983ED4F3869577956795B795F7959F5FD7
S1130F80C9F7880F911D9695879597F90895E1E023
S1130F90660F771F881FBB1F621773078407BA0782
S1130FA020F0621B730B840BBA0BEE1F88F7E095DD
S1130FB008950E94E0076894B1110C94970808956D
S1130FC00E947C0888F09F5798F0B92F9927B75151
S1130FD0B0F0E1F0660F771F881F991F1AF0BA95D9
S1130FE0C9F714C0B13091F00E949608B1E0089599
S1130FF00C949608672F782F8827B85F39F0B93F8B
S1131000CCF3869577956795B395D9F73EF490958B
S11310108095709561957F4F8F4F9F4F0895E89409
S113102009C097FB3EF490958095709561957F4F2C
S11310308F4F9F4F9923A9F0F92F96E9BB279395DA
S1131040F695879577956795B795F111F8CFFAF4EA
S1131050BB0F11F460FF1BC06F5F7F4F8F4F9F4F1B
S113106016C0882311F096E911C0772321F09EE879
S1131070872F762F05C0662371F096E8862F70E0DF
S113108060E02AF09A95660F771F881FDAF7880FB9
S11310909695879597F9089597F99F6780E870E08A
S11310A060E008959FEF80EC089500240A941616DA
S11310B0170618060906089500240A941216130642
S11310C0140605060895092E0394000C11F48823D0
S11310D052F0BB0F40F4BF2B11F460FF04C06F5FEC
S11310E07F4F8F4F9F4F089557FD9058440F551FC2
S11310F059F05F3F71F04795880F97FB991F61F096
S11311009F3F79F087950895121613061406551F0C
S1131110F2CF4695F1DF08C0161617061806991F78
S1131120F1CF86957105610508940895E894BB276D
S113113066277727CB0197F90895A1E21A2EAA1BF7
S1131140BB1BFD010DC0AA1FBB1FEE1FFF1FA21773
S1131150B307E407F50720F0A21BB30BE40BF50B70
S1131160661F771F881F991F1A9469F760957095F9
S1131170809590959B01AC01BD01CF010895F89431
S1051180FFCF9B
S10D11825A01020408102040800006
S9030000FC
